{
    "contractName": "DonorContract",
    "abi": [
        {
            "inputs": [],
            "name": "getAllDonorIDs",
            "outputs": [
                {
                    "internalType": "string[]",
                    "name": "",
                    "type": "string[]"
                }
            ],
            "stateMutability": "view",
            "type": "function"
        },
        {
            "inputs": [],
            "name": "getAllPatientIDs",
            "outputs": [
                {
                    "internalType": "string[]",
                    "name": "",
                    "type": "string[]"
                }
            ],
            "stateMutability": "view",
            "type": "function"
        },
        {
            "inputs": [],
            "name": "getAllPledgeIDs",
            "outputs": [
                {
                    "internalType": "string[]",
                    "name": "",
                    "type": "string[]"
                }
            ],
            "stateMutability": "view",
            "type": "function"
        },
        {
            "inputs": [],
            "name": "getCountOfDonors",
            "outputs": [
                {
                    "internalType": "uint256",
                    "name": "",
                    "type": "uint256"
                }
            ],
            "stateMutability": "view",
            "type": "function"
        },
        {
            "inputs": [],
            "name": "getCountOfPatients",
            "outputs": [
                {
                    "internalType": "uint256",
                    "name": "",
                    "type": "uint256"
                }
            ],
            "stateMutability": "view",
            "type": "function"
        },
        {
            "inputs": [],
            "name": "getCountOfPledges",
            "outputs": [
                {
                    "internalType": "uint256",
                    "name": "",
                    "type": "uint256"
                }
            ],
            "stateMutability": "view",
            "type": "function"
        },
        {
            "inputs": [
                {
                    "internalType": "string",
                    "name": "_medical_id",
                    "type": "string"
                }
            ],
            "name": "getDonor",
            "outputs": [
                {
                    "internalType": "string",
                    "name": "",
                    "type": "string"
                },
                {
                    "internalType": "uint256",
                    "name": "",
                    "type": "uint256"
                },
                {
                    "internalType": "string",
                    "name": "",
                    "type": "string"
                },
                {
                    "internalType": "string",
                    "name": "",
                    "type": "string"
                },
                {
                    "internalType": "string[]",
                    "name": "",
                    "type": "string[]"
                },
                {
                    "internalType": "uint256",
                    "name": "",
                    "type": "uint256"
                },
                {
                    "internalType": "uint256",
                    "name": "",
                    "type": "uint256"
                }
            ],
            "stateMutability": "view",
            "type": "function"
        },
        {
            "inputs": [
                {
                    "internalType": "string",
                    "name": "_medical_id",
                    "type": "string"
                }
            ],
            "name": "getPatient",
            "outputs": [
                {
                    "internalType": "string",
                    "name": "",
                    "type": "string"
                },
                {
                    "internalType": "uint256",
                    "name": "",
                    "type": "uint256"
                },
                {
                    "internalType": "string",
                    "name": "",
                    "type": "string"
                },
                {
                    "internalType": "string",
                    "name": "",
                    "type": "string"
                },
                {
                    "internalType": "string[]",
                    "name": "",
                    "type": "string[]"
                },
                {
                    "internalType": "uint256",
                    "name": "",
                    "type": "uint256"
                },
                {
                    "internalType": "uint256",
                    "name": "",
                    "type": "uint256"
                }
            ],
            "stateMutability": "view",
            "type": "function"
        },
        {
            "inputs": [
                {
                    "internalType": "string",
                    "name": "_medical_id",
                    "type": "string"
                }
            ],
            "name": "getPledge",
            "outputs": [
                {
                    "internalType": "string",
                    "name": "",
                    "type": "string"
                },
                {
                    "internalType": "uint256",
                    "name": "",
                    "type": "uint256"
                },
                {
                    "internalType": "string",
                    "name": "",
                    "type": "string"
                },
                {
                    "internalType": "string",
                    "name": "",
                    "type": "string"
                },
                {
                    "internalType": "string[]",
                    "name": "",
                    "type": "string[]"
                },
                {
                    "internalType": "uint256",
                    "name": "",
                    "type": "uint256"
                },
                {
                    "internalType": "uint256",
                    "name": "",
                    "type": "uint256"
                }
            ],
            "stateMutability": "view",
            "type": "function"
        },
        {
            "inputs": [
                {
                    "internalType": "string",
                    "name": "_fullname",
                    "type": "string"
                },
                {
                    "internalType": "uint256",
                    "name": "_age",
                    "type": "uint256"
                },
                {
                    "internalType": "string",
                    "name": "_gender",
                    "type": "string"
                },
                {
                    "internalType": "string",
                    "name": "_medical_id",
                    "type": "string"
                },
                {
                    "internalType": "string",
                    "name": "_blood_type",
                    "type": "string"
                },
                {
                    "internalType": "string[]",
                    "name": "_organ",
                    "type": "string[]"
                },
                {
                    "internalType": "uint256",
                    "name": "_weight",
                    "type": "uint256"
                },
                {
                    "internalType": "uint256",
                    "name": "_height",
                    "type": "uint256"
                }
            ],
            "name": "setDonors",
            "outputs": [],
            "stateMutability": "nonpayable",
            "type": "function"
        },
        {
            "inputs": [
                {
                    "internalType": "string",
                    "name": "_fullname",
                    "type": "string"
                },
                {
                    "internalType": "uint256",
                    "name": "_age",
                    "type": "uint256"
                },
                {
                    "internalType": "string",
                    "name": "_gender",
                    "type": "string"
                },
                {
                    "internalType": "string",
                    "name": "_medical_id",
                    "type": "string"
                },
                {
                    "internalType": "string",
                    "name": "_blood_type",
                    "type": "string"
                },
                {
                    "internalType": "string[]",
                    "name": "_organ",
                    "type": "string[]"
                },
                {
                    "internalType": "uint256",
                    "name": "_weight",
                    "type": "uint256"
                },
                {
                    "internalType": "uint256",
                    "name": "_height",
                    "type": "uint256"
                }
            ],
            "name": "setPatients",
            "outputs": [],
            "stateMutability": "nonpayable",
            "type": "function"
        },
        {
            "inputs": [
                {
                    "internalType": "string",
                    "name": "_fullname",
                    "type": "string"
                },
                {
                    "internalType": "uint256",
                    "name": "_age",
                    "type": "uint256"
                },
                {
                    "internalType": "string",
                    "name": "_gender",
                    "type": "string"
                },
                {
                    "internalType": "string",
                    "name": "_medical_id",
                    "type": "string"
                },
                {
                    "internalType": "string",
                    "name": "_blood_type",
                    "type": "string"
                },
                {
                    "internalType": "string[]",
                    "name": "_organ",
                    "type": "string[]"
                },
                {
                    "internalType": "uint256",
                    "name": "_weight",
                    "type": "uint256"
                },
                {
                    "internalType": "uint256",
                    "name": "_height",
                    "type": "uint256"
                }
            ],
            "name": "setPledge",
            "outputs": [],
            "stateMutability": "nonpayable",
            "type": "function"
        },
        {
            "inputs": [
                {
                    "internalType": "string",
                    "name": "_medical_id",
                    "type": "string"
                }
            ],
            "name": "validateDonor",
            "outputs": [
                {
                    "internalType": "bool",
                    "name": "",
                    "type": "bool"
                }
            ],
            "stateMutability": "view",
            "type": "function"
        },
        {
            "inputs": [
                {
                    "internalType": "string",
                    "name": "_medical_id",
                    "type": "string"
                }
            ],
            "name": "validatePatient",
            "outputs": [
                {
                    "internalType": "bool",
                    "name": "",
                    "type": "bool"
                }
            ],
            "stateMutability": "view",
            "type": "function"
        },
        {
            "inputs": [
                {
                    "internalType": "string",
                    "name": "_medical_id",
                    "type": "string"
                }
            ],
            "name": "validatePledge",
            "outputs": [
                {
                    "internalType": "bool",
                    "name": "",
                    "type": "bool"
                }
            ],
            "stateMutability": "view",
            "type": "function"
        }
    ],
    "bytecode": "608060405234801561001057600080fd5b50611c9d806100206000396000f3fe608060405234801561001057600080fd5b50600436106100f55760003560e01c80639d644dde11610097578063d0544a8d11610066578063d0544a8d146101d9578063d0e0579b146101e1578063e79a7a2e146101f4578063ef1215c31461020757600080fd5b80639d644dde146101a3578063b3885610146101b6578063b5d0f004146101be578063b5dd2968146101c657600080fd5b80635f6b957d116100d35780635f6b957d14610153578063778b5f251461017657806389d53d001461017e5780639b8112091461019057600080fd5b806325ead195146100fa57806331dad7321461011857806336aa555e1461013e575b600080fd5b61010261021a565b60405161010f9190611786565b60405180910390f35b61012b610126366004611857565b6102f3565b60405161010f9796959493929190611894565b61015161014c36600461199d565b610676565b005b610166610161366004611857565b610894565b604051901515815260200161010f565b610102610919565b6004545b60405190815260200161010f565b61016661019e366004611857565b6109e9565b6101516101b136600461199d565b610a22565b600554610182565b600354610182565b61012b6101d4366004611857565b610c35565b610102610f99565b6101516101ef36600461199d565b611069565b61012b610202366004611857565b61127c565b610166610215366004611857565b6115e0565b60606003805480602002602001604051908101604052809291908181526020016000905b828210156102ea57838290600052602060002001805461025d90611a8c565b80601f016020809104026020016040519081016040528092919081815260200182805461028990611a8c565b80156102d65780601f106102ab576101008083540402835291602001916102d6565b820191906000526020600020905b8154815290600101906020018083116102b957829003601f168201915b50505050508152602001906001019061023e565b50505050905090565b60606000606080606060008060018860405161030f9190611ac6565b9081526040519081900360200181209060019061032d908b90611ac6565b90815260200160405180910390206001015460018a60405161034f9190611ac6565b908152602001604051809103902060020160018b6040516103709190611ac6565b908152602001604051809103902060040160018c6040516103919190611ac6565b908152602001604051809103902060050160018d6040516103b29190611ac6565b90815260200160405180910390206006015460018e6040516103d49190611ac6565b9081526020016040518091039020600701548680546103f290611a8c565b80601f016020809104026020016040519081016040528092919081815260200182805461041e90611a8c565b801561046b5780601f106104405761010080835404028352916020019161046b565b820191906000526020600020905b81548152906001019060200180831161044e57829003601f168201915b5050505050965084805461047e90611a8c565b80601f01602080910402602001604051908101604052809291908181526020018280546104aa90611a8c565b80156104f75780601f106104cc576101008083540402835291602001916104f7565b820191906000526020600020905b8154815290600101906020018083116104da57829003601f168201915b5050505050945083805461050a90611a8c565b80601f016020809104026020016040519081016040528092919081815260200182805461053690611a8c565b80156105835780601f1061055857610100808354040283529160200191610583565b820191906000526020600020905b81548152906001019060200180831161056657829003601f168201915b5050505050935082805480602002602001604051908101604052809291908181526020016000905b828210156106575783829060005260206000200180546105ca90611a8c565b80601f01602080910402602001604051908101604052809291908181526020018280546105f690611a8c565b80156106435780601f1061061857610100808354040283529160200191610643565b820191906000526020600020905b81548152906001019060200180831161062657829003601f168201915b5050505050815260200190600101906105ab565b5050505092509650965096509650965096509650919395979092949650565b846040516020016106879190611ac6565b604051602081830303815290604052805190602001206001866040516106ad9190611ac6565b90815260200160405180910390206003016040516020016106ce9190611ae2565b60405160208183030381529060405280519060200120036106ee57600080fd5b876001866040516106ff9190611ac6565b908152604051908190036020019020906107199082611ba7565b508660018660405161072b9190611ac6565b908152602001604051809103902060010181905550856001866040516107519190611ac6565b9081526020016040518091039020600201908161076e9190611ba7565b50846001866040516107809190611ac6565b9081526020016040518091039020600301908161079d9190611ba7565b50836001866040516107af9190611ac6565b908152602001604051809103902060040190816107cc9190611ba7565b50826001866040516107de9190611ac6565b90815260200160405180910390206005019080519060200190610802929190611619565b50816001866040516108149190611ac6565b9081526020016040518091039020600601819055508060018660405161083a9190611ac6565b90815260405190819003602001902060070155600480546001810182556000919091527f8a35acfbc15ff81a39ae7d344fd709f28e8600b4aa8c65c6b64bfe7fe36bd19b016108898682611ba7565b505050505050505050565b6000816040516020016108a79190611ac6565b604051602081830303815290604052805190602001206000836040516108cd9190611ac6565b90815260200160405180910390206003016040516020016108ee9190611ae2565b604051602081830303815290604052805190602001200361091157506001919050565b506000919050565b60606004805480602002602001604051908101604052809291908181526020016000905b828210156102ea57838290600052602060002001805461095c90611a8c565b80601f016020809104026020016040519081016040528092919081815260200182805461098890611a8c565b80156109d55780601f106109aa576101008083540402835291602001916109d5565b820191906000526020600020905b8154815290600101906020018083116109b857829003601f168201915b50505050508152602001906001019061093d565b6000816040516020016109fc9190611ac6565b604051602081830303815290604052805190602001206001836040516108cd9190611ac6565b84604051602001610a339190611ac6565b60405160208183030381529060405280519060200120600086604051610a599190611ac6565b9081526020016040518091039020600301604051602001610a7a9190611ae2565b6040516020818303038152906040528051906020012003610a9a57600080fd5b87600086604051610aab9190611ac6565b90815260405190819003602001902090610ac59082611ba7565b5086600086604051610ad79190611ac6565b90815260200160405180910390206001018190555085600086604051610afd9190611ac6565b90815260200160405180910390206002019081610b1a9190611ba7565b5084600086604051610b2c9190611ac6565b90815260200160405180910390206003019081610b499190611ba7565b5083600086604051610b5b9190611ac6565b90815260200160405180910390206004019081610b789190611ba7565b5082600086604051610b8a9190611ac6565b90815260200160405180910390206005019080519060200190610bae929190611619565b5081600086604051610bc09190611ac6565b90815260200160405180910390206006018190555080600086604051610be69190611ac6565b90815260405190819003602001902060070155600380546001810182556000919091527fc2575a0e9e593c00f959f8c92f12db2869c3395a3b0502d05e2516446f71f85b016108898682611ba7565b606060006060806060600080600088604051610c519190611ac6565b90815260405190819003602001812090600090610c6f908b90611ac6565b90815260200160405180910390206001015460008a604051610c919190611ac6565b908152602001604051809103902060020160008b604051610cb29190611ac6565b908152602001604051809103902060040160008c604051610cd39190611ac6565b908152602001604051809103902060050160008d604051610cf49190611ac6565b90815260200160405180910390206006015460008e604051610d169190611ac6565b908152602001604051809103902060070154868054610d3490611a8c565b80601f0160208091040260200160405190810160405280929190818152602001828054610d6090611a8c565b8015610dad5780601f10610d8257610100808354040283529160200191610dad565b820191906000526020600020905b815481529060010190602001808311610d9057829003601f168201915b50505050509650848054610dc090611a8c565b80601f0160208091040260200160405190810160405280929190818152602001828054610dec90611a8c565b8015610e395780601f10610e0e57610100808354040283529160200191610e39565b820191906000526020600020905b815481529060010190602001808311610e1c57829003601f168201915b50505050509450838054610e4c90611a8c565b80601f0160208091040260200160405190810160405280929190818152602001828054610e7890611a8c565b8015610ec55780601f10610e9a57610100808354040283529160200191610ec5565b820191906000526020600020905b815481529060010190602001808311610ea857829003601f168201915b5050505050935082805480602002602001604051908101604052809291908181526020016000905b82821015610657578382906000526020600020018054610f0c90611a8c565b80601f0160208091040260200160405190810160405280929190818152602001828054610f3890611a8c565b8015610f855780601f10610f5a57610100808354040283529160200191610f85565b820191906000526020600020905b815481529060010190602001808311610f6857829003601f168201915b505050505081526020019060010190610eed565b60606005805480602002602001604051908101604052809291908181526020016000905b828210156102ea578382906000526020600020018054610fdc90611a8c565b80601f016020809104026020016040519081016040528092919081815260200182805461100890611a8c565b80156110555780601f1061102a57610100808354040283529160200191611055565b820191906000526020600020905b81548152906001019060200180831161103857829003601f168201915b505050505081526020019060010190610fbd565b8460405160200161107a9190611ac6565b604051602081830303815290604052805190602001206001866040516110a09190611ac6565b90815260200160405180910390206003016040516020016110c19190611ae2565b60405160208183030381529060405280519060200120036110e157600080fd5b876002866040516110f29190611ac6565b9081526040519081900360200190209061110c9082611ba7565b508660028660405161111e9190611ac6565b908152602001604051809103902060010181905550856002866040516111449190611ac6565b908152602001604051809103902060020190816111619190611ba7565b50846002866040516111739190611ac6565b908152602001604051809103902060030190816111909190611ba7565b50836002866040516111a29190611ac6565b908152602001604051809103902060040190816111bf9190611ba7565b50826002866040516111d19190611ac6565b908152602001604051809103902060050190805190602001906111f5929190611619565b50816002866040516112079190611ac6565b9081526020016040518091039020600601819055508060028660405161122d9190611ac6565b90815260405190819003602001902060070155600580546001810182556000919091527f036b6384b5eca791c62761152d0c79bb0604c104a5fb6f4eb0703f3154bb3db0016108898682611ba7565b6060600060608060606000806002886040516112989190611ac6565b908152604051908190036020018120906002906112b6908b90611ac6565b90815260200160405180910390206001015460028a6040516112d89190611ac6565b908152602001604051809103902060020160028b6040516112f99190611ac6565b908152602001604051809103902060040160028c60405161131a9190611ac6565b908152602001604051809103902060050160028d60405161133b9190611ac6565b90815260200160405180910390206006015460028e60405161135d9190611ac6565b90815260200160405180910390206007015486805461137b90611a8c565b80601f01602080910402602001604051908101604052809291908181526020018280546113a790611a8c565b80156113f45780601f106113c9576101008083540402835291602001916113f4565b820191906000526020600020905b8154815290600101906020018083116113d757829003601f168201915b5050505050965084805461140790611a8c565b80601f016020809104026020016040519081016040528092919081815260200182805461143390611a8c565b80156114805780601f1061145557610100808354040283529160200191611480565b820191906000526020600020905b81548152906001019060200180831161146357829003601f168201915b5050505050945083805461149390611a8c565b80601f01602080910402602001604051908101604052809291908181526020018280546114bf90611a8c565b801561150c5780601f106114e15761010080835404028352916020019161150c565b820191906000526020600020905b8154815290600101906020018083116114ef57829003601f168201915b5050505050935082805480602002602001604051908101604052809291908181526020016000905b8282101561065757838290600052602060002001805461155390611a8c565b80601f016020809104026020016040519081016040528092919081815260200182805461157f90611a8c565b80156115cc5780601f106115a1576101008083540402835291602001916115cc565b820191906000526020600020905b8154815290600101906020018083116115af57829003601f168201915b505050505081526020019060010190611534565b6000816040516020016115f39190611ac6565b604051602081830303815290604052805190602001206002836040516108cd9190611ac6565b82805482825590600052602060002090810192821561165f579160200282015b8281111561165f578251829061164f9082611ba7565b5091602001919060010190611639565b5061166b92915061166f565b5090565b8082111561166b576000611683828261168c565b5060010161166f565b50805461169890611a8c565b6000825580601f106116a8575050565b601f0160209004906000526020600020908101906116c691906116c9565b50565b5b8082111561166b57600081556001016116ca565b60005b838110156116f95781810151838201526020016116e1565b50506000910152565b6000815180845261171a8160208601602086016116de565b601f01601f19169290920160200192915050565b600082825180855260208086019550808260051b84010181860160005b8481101561177957601f19868403018952611767838351611702565b9884019892509083019060010161174b565b5090979650505050505050565b602081526000611799602083018461172e565b9392505050565b634e487b7160e01b600052604160045260246000fd5b604051601f8201601f1916810167ffffffffffffffff811182821017156117df576117df6117a0565b604052919050565b600082601f8301126117f857600080fd5b813567ffffffffffffffff811115611812576118126117a0565b611825601f8201601f19166020016117b6565b81815284602083860101111561183a57600080fd5b816020850160208301376000918101602001919091529392505050565b60006020828403121561186957600080fd5b813567ffffffffffffffff81111561188057600080fd5b61188c848285016117e7565b949350505050565b60e0815260006118a760e083018a611702565b88602084015282810360408401526118bf8189611702565b905082810360608401526118d38188611702565b905082810360808401526118e7818761172e565b60a0840195909552505060c0015295945050505050565b600082601f83011261190f57600080fd5b8135602067ffffffffffffffff8083111561192c5761192c6117a0565b8260051b61193b8382016117b6565b938452858101830193838101908886111561195557600080fd5b84880192505b85831015611991578235848111156119735760008081fd5b6119818a87838c01016117e7565b835250918401919084019061195b565b98975050505050505050565b600080600080600080600080610100898b0312156119ba57600080fd5b883567ffffffffffffffff808211156119d257600080fd5b6119de8c838d016117e7565b995060208b0135985060408b01359150808211156119fb57600080fd5b611a078c838d016117e7565b975060608b0135915080821115611a1d57600080fd5b611a298c838d016117e7565b965060808b0135915080821115611a3f57600080fd5b611a4b8c838d016117e7565b955060a08b0135915080821115611a6157600080fd5b50611a6e8b828c016118fe565b93505060c0890135915060e089013590509295985092959890939650565b600181811c90821680611aa057607f821691505b602082108103611ac057634e487b7160e01b600052602260045260246000fd5b50919050565b60008251611ad88184602087016116de565b9190910192915050565b6000808354611af081611a8c565b60018281168015611b085760018114611b1d57611b4c565b60ff1984168752821515830287019450611b4c565b8760005260208060002060005b85811015611b435781548a820152908401908201611b2a565b50505082870194505b50929695505050505050565b601f821115611ba257600081815260208120601f850160051c81016020861015611b7f5750805b601f850160051c820191505b81811015611b9e57828155600101611b8b565b5050505b505050565b815167ffffffffffffffff811115611bc157611bc16117a0565b611bd581611bcf8454611a8c565b84611b58565b602080601f831160018114611c0a5760008415611bf25750858301515b600019600386901b1c1916600185901b178555611b9e565b600085815260208120601f198616915b82811015611c3957888601518255948401946001909101908401611c1a565b5085821015611c575787850151600019600388901b60f8161c191681555b5050505050600190811b0190555056fea26469706673582212200c168ffa1dead443433db9535dedf82885896e13293ee6a90aced2084bd26b9c64736f6c63430008130033",
    "sourcePath": "e:/organ-donation-platform/contracts/DonorContract.sol",
    "compiler": {
        "name": "solc",
        "version": "0.8.19+commit.7dd6d404"
    },
    "functionHashes": {
        "getAllDonorIDs()": "778b5f25",
        "getAllPatientIDs()": "d0544a8d",
        "getAllPledgeIDs()": "25ead195",
        "getCountOfDonors()": "89d53d00",
        "getCountOfPatients()": "b3885610",
        "getCountOfPledges()": "b5d0f004",
        "getDonor(string)": "31dad732",
        "getPatient(string)": "e79a7a2e",
        "getPledge(string)": "b5dd2968",
        "setDonors(string,uint256,string,string,string,string[],uint256,uint256)": "36aa555e",
        "setPatients(string,uint256,string,string,string,string[],uint256,uint256)": "d0e0579b",
        "setPledge(string,uint256,string,string,string,string[],uint256,uint256)": "9d644dde",
        "validateDonor(string)": "9b811209",
        "validatePatient(string)": "ef1215c3",
        "validatePledge(string)": "5f6b957d"
    },
    "gasEstimates": {
        "creation": {
            "codeDepositCost": "1465000",
            "executionCost": "1527",
            "totalCost": "1466527"
        },
        "external": {
            "getAllDonorIDs()": "infinite",
            "getAllPatientIDs()": "infinite",
            "getAllPledgeIDs()": "infinite",
            "getCountOfDonors()": "2348",
            "getCountOfPatients()": "2337",
            "getCountOfPledges()": "2359",
            "getDonor(string)": "infinite",
            "getPatient(string)": "infinite",
            "getPledge(string)": "infinite",
            "setDonors(string,uint256,string,string,string,string[],uint256,uint256)": "infinite",
            "setPatients(string,uint256,string,string,string,string[],uint256,uint256)": "infinite",
            "setPledge(string,uint256,string,string,string,string[],uint256,uint256)": "infinite",
            "validateDonor(string)": "infinite",
            "validatePatient(string)": "infinite",
            "validatePledge(string)": "infinite"
        }
    }
}